:030000000209C82A
:0C09C800787FE4F6D8FD75813E020A0F2E
:100B9000202020476574205265616479202000532D
:100BA000636F72653A202020202000486967682022
:100BB00053636F72653A002A202A202A202A202AAD
:100BC000202A202A202A20006D20002A2000717768
:0F0BD0006572747975696173646667686A6B0032
:100D1900C101C1000235000502310000022F0000A7
:0C0D29000233019002230000023D000094
:100C2C00E4F5A0C282C280C2817F38FE120D701220
:100C3C000CB37F067E00120D70120CB37F0C7E007D
:100C4C00120D70120CB37F017E00120D70120CB3DA
:070C5C007F807E00020D7095
:040CB3007F047E003C
:100CB700E4FDFCC3ED9FEC9E5015E4FBFA0BBB0073
:0F0CC700010ABA01F8BB7EF50DBD00010C80E4F7
:010CD60022FB
:100922008E098F0A8B0B8A0C890D7C277D10120889
:100932004DEF2430120819AE09AF0A7C277D101240
:10094200084D7E037FE8CFCDCFCECCCE12084DEF3F
:100952002430AB0BAA0CA90D90000112082BAE0992
:10096200AF0A7C037DE812084D7E007F64CFCDCFB5
:10097200CECCCE12084DEF2430AB0BAA0CA90D90B1
:10098200000212082BAE09AF0A7C007D6412084DEA
:100992007E007F0ACFCDCFCECCCE12084DEF2430D1
:1009A200AB0BAA0CA90D90000312082BAE09AF0ADB
:1009B2007C007D0A12084DED2430AB0BAA0CA90D68
:0609C20090000402082B66
:040D6C007F807E0006
:100D7000C280C281D2828FA07F0A7E00120CB7C2CD
:020D80008222CD
:100D8200D280C281D2828FA07F0A7E00120CB7C2AB
:020D92008222BB
:060C63007BFF7A0B79B75C
:100C69008B0B8A0C890DAB0BAA0CA90D120800601D
:100C790013050DE50D7002050C14F9120800FF1299
:050C89000D8280E22253
:100D3600758921758DF3759840D28E758C3C758AB0
:0C0D4600B0D2ACD2AFD2A9C2ABD29C227A
:080DBE008F993001FDC20122F2
:100C8E008B0E8A0F8910AB0EAA0FA91012080060E6
:100C9E00130510E5107002050F14F9120800FF126B
:050CAE000DBE80E222F2
:090DB400E4FF300004C200AF9915
:010DBD002213
:03002300020D9437
:100D9400309905C299D20132309804C298D20032F7
:100D5200120D6C7BFF7A0B7990120C697FD07E07A3
:0A0D6200120CB77F017E00020D7035
:100B3A00120D6C7BFF7A0B799F120C697B007A008D
:100B4A007921AF24AE231209227B007A007921127F
:100B5A000C697FC07E00120D707BFF7A0B79AB1295
:100B6A000C697B007A007925AF3EAE3D1209227BE3
:100B7A00007A007925120C697FB87E0B120CB77FB8
:060B8A00017E00020D7067
:100CFB00120D6C120C637FC07E00120D70120C6310
:0E0D0B007FB87E0B120CB77F017E00020D70C8
:100A54008E098F0A120D6CE4F537F538E538B50ABE
:100A64000DE537B509087BFF7A0B79C880067BFF53
:100A74007A0B79CB120C690538E53870020537C357
:100A84009408E5376480948040D27FC07E00120DC4
:100A940070753900753A08E53AB50A0DE539B509B6
:100AA400087BFF7A0B79C880067BFF7A0B79CB121F
:100AB4000C69053AE53A70020539C39410E53964C6
:060AC40080948040D22264
:100BDF008B098A0A890B1208D8FDACF08C3BF53CC7
:100BEF00AE3B7803C333CE33CED8F9FFE53C6F5419
:100BFF0008FBE53BA2E713E53C135407FFE4F5318F
:100C0F00EB4FF5322DFFE5313CFE7C007D101208D5
:0D0C1F00A2AB09AA0AA90BEC8DF002090393
:100DA400120D52120CFBAF36AE35120A54D28C22FD
:03000B00020CD70D
:100CD700C0E0C28CE53445337007F52F75300180CD
:100CE70010758C3C758AB0E534153470021533D213
:040CF7008CD0E0328B
:100ACA00E4F508120C2C120D36120DA4120DB48F77
:100ADA000874CE2536F582740B3535F583E493B563
:100AEA0008180524E524700205237B007A0079356D
:100AFA00120BDFAF36AE35120A54E5306401452FCA
:100B0A0070CAF52FF530D3E524953EE53D6480F8AB
:100B1A00E523648098400685233D85243E7533018C
:100B2A00753490120B3AE4F523F524120DA4809C37
:1009D400020ACAE493A3F8E493A34003F68001F265
:1009E40008DFF48029E493A3F85407240CC8C33324
:1009F400C4540F4420C8834004F456800146F6DFF3
:100A0400E4800B0102040810204080900D19E47E5C
:100A1400019360BCA3FF543F30E509541FFEE493E7
:100A2400A360010ECF54C025E060A840B8E493A3AE
:100A3400FAE493A3F8E493A3C8C582C8CAC583CAD9
:100A4400F0A3C8C582C8CAC583CADFE9DEE780BE91
:010D350000BD
:10080000BB010689828A83E0225002E722BBFE02F6
:09081000E32289828A83E4932229
:10081900BB010689828A83F0225002F722BBFE01BE
:02082900F322B8
:10082B00F8BB010DE58229F582E5833AF583E8F003
:10083B00225006E92582C8F622BBFE05E92582C8AF
:02084B00F22297
:10084D00BC000BBE0029EF8DF084FFADF022E4CC8F
:10085D00F875F008EF2FFFEE33FEEC33FCEE9DEC58
:10086D00984005FCEE9DFE0FD5F0E9E4CEFD22ED9E
:10087D00F8F5F0EE8420D21CFEADF075F008EF2FE8
:10088D00FFED33FD4007985006D5F0F222C398FDD9
:05089D000FD5F0EA2276
:1008A200C2D5EC30E709B2D5E4C39DFDE49CFCEE71
:1008B20030E715B2D5E4C39FFFE49EFE12084DC394
:1008C200E49DFDE49CFC800312084D30D507C3E48F
:0608D2009FFFE49EFE22E0
:1008D800BB010A89828A83E0F5F0A3E022500687EB
:1008E800F009E71922BBFE07E3F5F009E3192289AD
:0B08F800828A83E493F5F074019322E0
:10090300BB010A89828A83F0E5F0A3F0225006F73F
:0F09130009A7F01922BBFE06F3E5F009F319223C
:00000001FF
